{
  "contractName": "HashFile",
  "abi": [
    {
      "anonymous": false,
      "inputs": [
        {
          "indexed": false,
          "internalType": "address",
          "name": "sender",
          "type": "address"
        },
        {
          "indexed": false,
          "internalType": "bytes32",
          "name": "cert",
          "type": "bytes32"
        }
      ],
      "name": "LogConfirmed",
      "type": "event"
    },
    {
      "anonymous": false,
      "inputs": [
        {
          "indexed": false,
          "internalType": "address",
          "name": "sender",
          "type": "address"
        },
        {
          "indexed": false,
          "internalType": "bytes32",
          "name": "cert",
          "type": "bytes32"
        }
      ],
      "name": "LogNewCert",
      "type": "event"
    },
    {
      "constant": true,
      "inputs": [
        {
          "internalType": "uint256",
          "name": "",
          "type": "uint256"
        }
      ],
      "name": "certList",
      "outputs": [
        {
          "internalType": "bytes32",
          "name": "",
          "type": "bytes32"
        }
      ],
      "payable": false,
      "stateMutability": "view",
      "type": "function"
    },
    {
      "constant": true,
      "inputs": [
        {
          "internalType": "bytes32",
          "name": "",
          "type": "bytes32"
        }
      ],
      "name": "certs",
      "outputs": [
        {
          "internalType": "address",
          "name": "recipient",
          "type": "address"
        },
        {
          "internalType": "bool",
          "name": "confirmed",
          "type": "bool"
        }
      ],
      "payable": false,
      "stateMutability": "view",
      "type": "function"
    },
    {
      "constant": true,
      "inputs": [
        {
          "internalType": "bytes32",
          "name": "cert",
          "type": "bytes32"
        }
      ],
      "name": "isCert",
      "outputs": [
        {
          "internalType": "bool",
          "name": "isIndeed",
          "type": "bool"
        }
      ],
      "payable": false,
      "stateMutability": "view",
      "type": "function"
    },
    {
      "constant": false,
      "inputs": [
        {
          "internalType": "bytes32",
          "name": "cert",
          "type": "bytes32"
        }
      ],
      "name": "createCert",
      "outputs": [],
      "payable": false,
      "stateMutability": "nonpayable",
      "type": "function"
    },
    {
      "constant": false,
      "inputs": [
        {
          "internalType": "bytes32",
          "name": "cert",
          "type": "bytes32"
        }
      ],
      "name": "confirmCert",
      "outputs": [],
      "payable": false,
      "stateMutability": "nonpayable",
      "type": "function"
    },
    {
      "constant": true,
      "inputs": [
        {
          "internalType": "bytes32",
          "name": "cert",
          "type": "bytes32"
        },
        {
          "internalType": "address",
          "name": "user",
          "type": "address"
        }
      ],
      "name": "isUserCert",
      "outputs": [
        {
          "internalType": "bool",
          "name": "",
          "type": "bool"
        }
      ],
      "payable": false,
      "stateMutability": "view",
      "type": "function"
    }
  ],
  "bytecode": "0x608060405234801561001057600080fd5b5061056d806100206000396000f3fe608060405234801561001057600080fd5b50600436106100625760003560e01c806310c1266c146100675780634063d812146100a9578063532442d914610122578063a7eaa1ac14610168578063ed930192146101ce578063f260f5cf146101fc575b600080fd5b6100936004803603602081101561007d57600080fd5b810190808035906020019092919050505061022a565b6040518082815260200191505060405180910390f35b6100d5600480360360208110156100bf57600080fd5b810190808035906020019092919050505061024b565b604051808373ffffffffffffffffffffffffffffffffffffffff1673ffffffffffffffffffffffffffffffffffffffff168152602001821515151581526020019250505060405180910390f35b61014e6004803603602081101561013857600080fd5b810190808035906020019092919050505061029c565b604051808215151515815260200191505060405180910390f35b6101b46004803603604081101561017e57600080fd5b8101908080359060200190929190803573ffffffffffffffffffffffffffffffffffffffff16906020019092919050505061031e565b604051808215151515815260200191505060405180910390f35b6101fa600480360360208110156101e457600080fd5b8101908080359060200190929190505050610362565b005b6102286004803603602081101561021257600080fd5b8101908080359060200190929190505050610469565b005b6001818154811061023757fe5b906000526020600020016000915090505481565b60006020528060005260406000206000915090508060000160009054906101000a900473ffffffffffffffffffffffffffffffffffffffff16908060000160149054906101000a900460ff16905082565b60008060001b8214156102b25760009050610319565b3373ffffffffffffffffffffffffffffffffffffffff1660008084815260200190815260200160002060000160009054906101000a900473ffffffffffffffffffffffffffffffffffffffff1673ffffffffffffffffffffffffffffffffffffffff161490505b919050565b60006103298361029c565b610336576000905061035c565b60008084815260200190815260200160002060000160149054906101000a900460ff1690505b92915050565b61036b8161029c565b1561037557600080fd5b60008060008381526020019081526020016000209050338160000160006101000a81548173ffffffffffffffffffffffffffffffffffffffff021916908373ffffffffffffffffffffffffffffffffffffffff16021790555060018290806001815401808255809150509060018203906000526020600020016000909192909190915055507f289520e4ec9ad76b971ec44a925fff88f0c66babfbffe484549bc76787d22eb53383604051808373ffffffffffffffffffffffffffffffffffffffff1673ffffffffffffffffffffffffffffffffffffffff1681526020018281526020019250505060405180910390a15050565b6000151560008083815260200190815260200160002060000160149054906101000a900460ff1615151461049c57600080fd5b600160008083815260200190815260200160002060000160146101000a81548160ff0219169083151502179055507ff356e1d4d68993b720834d1fbf88de67fedbfb9ced9d4a42987356b426ec32503382604051808373ffffffffffffffffffffffffffffffffffffffff1673ffffffffffffffffffffffffffffffffffffffff1681526020018281526020019250505060405180910390a15056fea265627a7a72315820823082b0612f4b6a69a10eda46d58208083214998575f9f4296951a043a81c1764736f6c63430005100032",
  "source": "pragma solidity >=0.4.22 <0.8.0;\n\ncontract HashFile{\n\n    struct Cert {\n        address recipient;\n        bool confirmed;\n    }\n\n    mapping(bytes32 => Cert) public certs;\n    bytes32[] public certList;\n\n    event LogNewCert(address sender, bytes32 cert);\n    event LogConfirmed(address sender, bytes32 cert);\n\n    function isCert(bytes32 cert) public view returns(bool isIndeed) {\n        if(cert == 0) return false;\n        return certs[cert].recipient == msg.sender;\n    }\n\n    function createCert(bytes32 cert) public {\n        require(!isCert(cert));\n        Cert storage c = certs[cert];\n        c.recipient = msg.sender;\n        certList.push(cert);\n        emit LogNewCert(msg.sender, cert);\n    }\n\n    function confirmCert(bytes32 cert) public {\n        require(certs[cert].confirmed == false);\n        certs[cert].confirmed = true;\n        emit LogConfirmed(msg.sender, cert);\n    }\n\n    function isUserCert(bytes32 cert, address user) public view returns(bool) {\n        if(!isCert(cert)) return false;\n        return certs[cert].confirmed;\n    }\n}",
  "sourcePath": "/home/athira/Splunk_task_submission/DApp_LogHash/contracts/HashFile.sol",
  "compiler": {
    "name": "solc",
    "version": "0.5.16+commit.9c3226ce.Emscripten.clang"
  },
  "schemaVersion": "3.2.5",
  "updatedAt": "2020-10-05T13:48:24.525Z",
  "networkType": "ethereum",
  "devdoc": {
    "methods": {}
  },
  "userdoc": {
    "methods": {}
  }
}