{
  "contractName": "HashFile",
  "abi": [
    {
      "anonymous": false,
      "inputs": [
        {
          "indexed": false,
          "internalType": "address",
          "name": "sender",
          "type": "address"
        },
        {
          "indexed": false,
          "internalType": "bytes32",
          "name": "hashes",
          "type": "bytes32"
        }
      ],
      "name": "LogNewHash",
      "type": "event"
    },
    {
      "constant": true,
      "inputs": [
        {
          "internalType": "uint256",
          "name": "",
          "type": "uint256"
        }
      ],
      "name": "hashList",
      "outputs": [
        {
          "internalType": "bytes32",
          "name": "",
          "type": "bytes32"
        }
      ],
      "payable": false,
      "stateMutability": "view",
      "type": "function"
    },
    {
      "constant": true,
      "inputs": [
        {
          "internalType": "bytes32",
          "name": "",
          "type": "bytes32"
        }
      ],
      "name": "hashes",
      "outputs": [
        {
          "internalType": "address",
          "name": "fileowner",
          "type": "address"
        },
        {
          "internalType": "bool",
          "name": "confirmed",
          "type": "bool"
        }
      ],
      "payable": false,
      "stateMutability": "view",
      "type": "function"
    },
    {
      "constant": true,
      "inputs": [
        {
          "internalType": "bytes32",
          "name": "hash",
          "type": "bytes32"
        }
      ],
      "name": "isHash",
      "outputs": [
        {
          "internalType": "bool",
          "name": "isIndeed",
          "type": "bool"
        }
      ],
      "payable": false,
      "stateMutability": "view",
      "type": "function"
    },
    {
      "constant": false,
      "inputs": [
        {
          "internalType": "bytes32",
          "name": "hash",
          "type": "bytes32"
        }
      ],
      "name": "createHash",
      "outputs": [],
      "payable": false,
      "stateMutability": "nonpayable",
      "type": "function"
    },
    {
      "constant": true,
      "inputs": [
        {
          "internalType": "bytes32",
          "name": "hash",
          "type": "bytes32"
        },
        {
          "internalType": "address",
          "name": "owner",
          "type": "address"
        }
      ],
      "name": "isOwnerHash",
      "outputs": [
        {
          "internalType": "bool",
          "name": "",
          "type": "bool"
        }
      ],
      "payable": false,
      "stateMutability": "view",
      "type": "function"
    }
  ],
  "bytecode": "0x608060405234801561001057600080fd5b50610493806100206000396000f3fe608060405234801561001057600080fd5b50600436106100575760003560e01c80632c8d41fd1461005c578063415d0b571461009e5780636369ba5f146100cc5780637bd2598214610112578063d658d2e914610178575b600080fd5b6100886004803603602081101561007257600080fd5b81019080803590602001909291905050506101f1565b6040518082815260200191505060405180910390f35b6100ca600480360360208110156100b457600080fd5b8101908080359060200190929190505050610212565b005b6100f8600480360360208110156100e257600080fd5b8101908080359060200190929190505050610347565b604051808215151515815260200191505060405180910390f35b61015e6004803603604081101561012857600080fd5b8101908080359060200190929190803573ffffffffffffffffffffffffffffffffffffffff1690602001909291905050506103c9565b604051808215151515815260200191505060405180910390f35b6101a46004803603602081101561018e57600080fd5b810190808035906020019092919050505061040d565b604051808373ffffffffffffffffffffffffffffffffffffffff1673ffffffffffffffffffffffffffffffffffffffff168152602001821515151581526020019250505060405180910390f35b600181815481106101fe57fe5b906000526020600020016000915090505481565b61021b81610347565b1561022557600080fd5b60008060008381526020019081526020016000209050338160000160006101000a81548173ffffffffffffffffffffffffffffffffffffffff021916908373ffffffffffffffffffffffffffffffffffffffff1602179055506001829080600181540180825580915050906001820390600052602060002001600090919290919091505550600160008084815260200190815260200160002060000160146101000a81548160ff0219169083151502179055507f57bbdcecb8fc8f12bd1660281387cdf61cfaa590471eddea0c9130b20d02914b3383604051808373ffffffffffffffffffffffffffffffffffffffff1673ffffffffffffffffffffffffffffffffffffffff1681526020018281526020019250505060405180910390a15050565b60008060001b82141561035d57600090506103c4565b3373ffffffffffffffffffffffffffffffffffffffff1660008084815260200190815260200160002060000160009054906101000a900473ffffffffffffffffffffffffffffffffffffffff1673ffffffffffffffffffffffffffffffffffffffff161490505b919050565b60006103d483610347565b6103e15760009050610407565b60008084815260200190815260200160002060000160149054906101000a900460ff1690505b92915050565b60006020528060005260406000206000915090508060000160009054906101000a900473ffffffffffffffffffffffffffffffffffffffff16908060000160149054906101000a900460ff1690508256fea265627a7a723158203cd2958202a2440101102463cc6d775a9c92bfe39fa030257da5f884b622ccad64736f6c63430005100032",
  "source": "pragma solidity >=0.4.22 <0.8.0;\n\ncontract HashFile{\n\n    struct Hash {\n        address fileowner;\n        bool confirmed;\n    }\n\n    mapping(bytes32 => Hash) public hashes;\n    bytes32[] public hashList;\n\n    event LogNewHash(address sender, bytes32 hashes);\n\n    function isHash(bytes32 hash) public view returns(bool isIndeed) {\n        if(hash == 0) return false;\n        return hashes[hash].fileowner == msg.sender;\n    }\n\n    function createHash(bytes32 hash) public {\n        require(!isHash(hash));\n        Hash storage h= hashes[hash];\n        h.fileowner = msg.sender;\n        hashList.push(hash);\n        hashes[hash].confirmed = true;\n        emit LogNewHash(msg.sender, hash);\n    }\n\n  \n\n    function isOwnerHash(bytes32 hash, address owner) public view returns(bool) {\n        if(!isHash(hash)) return false;\n        return hashes[hash].confirmed;\n    }\n}",
  "sourcePath": "/home/athira/DApp-storing-splunkLoghash-Besu/DApp_LogHash/contracts/HashFile.sol",
  "compiler": {
    "name": "solc",
    "version": "0.5.16+commit.9c3226ce.Emscripten.clang"
  },
  "schemaVersion": "3.2.5",
  "updatedAt": "2020-10-10T05:15:14.000Z",
  "networkType": "ethereum",
  "devdoc": {
    "methods": {}
  },
  "userdoc": {
    "methods": {}
  }
}